:060000000A128A11062815
:10000C000313831671308F0003178316880189013F
:10001C0003138316870103138312870103138316BB
:10002C00880103138312880103138312A2010313A3
:10003C008312A30103138312A40103138312A501DA
:10004C00A20A0A302202031D3E28A201A30A0A308A
:10005C002302031D3E28A301A40A0A302402031D17
:10006C003E28A401A50A0A302502031D3E28A5013D
:10007C000530A60022085B20871188000714662033
:10008C0023085B20071088008714662024085B2057
:10009C00871088000715662025085B20071188004B
:1000AC0087156620A60B4028262882073F34063485
:1000BC005B344F3466346D347D3407347F346F34A5
:1000CC000A306828A100F930A0000000A00B6B28B2
:0600DC00A10B69280800D9
:04400E00F428FF3F54
:00000001FF
