:060000000A128A11062815
:10000C000313831671308F0003178316880189013F
:10001C000313831687010313831287010714031339
:10002C008316880103138312880107302C20880063
:10003C00372008302C208800372003302C208800F3
:10004C00372005302C20880037201B2882073F34AE
:10005C0006345B344F3466346D347D3407347F346E
:10006C006F340A30A2006430A100F930A000000007
:0E007C00A00B3D28A10B3B28A20B3928080041
:04400E00F428FF3F54
:00000001FF
