:060000000A128A11062815
:10000C000313831671308F0003178316880189013F
:10001C0003138316870103138312870187140313B9
:10002C0083168801031383128801031383120A3089
:10003C00A300A303FF302302031D28282528093021
:10004C00A300282823082D20880038201F28820789
:10005C003F3406345B344F3466346D347D340734AE
:10006C007F346F340A30A2006430A100F930A00054
:10007C000000A00B3E28A10B3C28A20B3A2808003C
:04400E00F428FF3F54
:00000001FF
