:060000000A128A11062815
:10000C0003178316013088000313831671308F0099
:10001C000313831600308800031383128801031323
:10002C0083160E309F0003138316013085000313D3
:10003C008312850103138312C1309F00A2019F1408
:10004C0001306B209F1828281E08A2001C302202A9
:10005C000318332800308800252838302202031872
:10006C003A280130880025285430220203184128F0
:10007C0003308800252870302202031848280730E6
:10008C00880025288C30220203184F280F30880056
:10009C002528A8302202031856281F30880025284E
:1000AC00C430220203185D283F3088002528E03038
:1000BC002202031864287F3088002528FA30220297
:1000CC0003182528FF3088002528A100F930A0004E
:0C00DC000000A00B6E28A10B6C2808008F
:04400E00F428FF3F54
:00000001FF
